:020000040800F2
:10000000B8080020A9010008311A000821180008CA
:10001000F1180008BD020008892200080000000055
:100020000000000000000000000000000D1C00089F
:10003000BF02000800000000331A0008B11D0008CC
:10004000C3010008C3010008C3010008C301000880
:10005000C3010008C3010008C3010008C301000870
:10006000C3010008C3010008C3010008C301000860
:10007000C3010008C3010008C3010008C301000850
:10008000C3010008C3010008C3010008C301000840
:10009000C3010008C3010008C3010008C301000830
:1000A000C3010008C3010008C3010008C301000820
:1000B000C30100080000000000000000C3010008A8
:1000C000C3010008C3010008C3010008C301000800
:1000D000C30100087D220008C3010008C301000815
:1000E000C3010008C3010008000000000000000078
:1000F0000000000000000000000000000000000000
:1001000000000000C301000800000000C301000857
:100110000000000000000000C3010008C301000847
:10012000C3010008C3010008C3010008C30100089F
:10013000C3010008000000000000000000000000F3
:10014000C3010008C3010008C3010008000000004B
:10015000C3010008C3010008C3010008C30100086F
:10016000C3010008C3010008C3010008000000002B
:10017000C3010008C30100080000000000000000E7
:10018000C3010008C3010008C3010008DFF80CD058
:1001900000F082F800480047F9250008B808002060
:1001A00080F30888704700000648804706480047EB
:1001B000FEE7FEE7FEE7FEE7FEE7FEE7FEE7FEE717
:1001C000FEE7FEE73D1E00088D0100082DE9F05F07
:1001D0000546002092469B468846064681464024B6
:1001E0001BE0284641464746224600F044F8534665
:1001F0005A46C01A914110D311461846224600F0C3
:100200002BF82D1A67EB01084F46224601200021EA
:1002100000F022F817EB00094E41201EA4F1010462
:10022000DFDC484631462A46434600F000B830BC81
:10023000BDE8C09FD2B201E000F8012B491EFBD2FD
:1002400070470022F6E710B513460A4604461946E1
:10025000FFF7F0FF204610BD202A04DB203A00FA09
:1002600002F1002070479140C2F1200320FA03F30D
:10027000194390407047202A04DB203A21FA02F00B
:100280000021704721FA02F3D040C2F120029140D0
:100290000843194670470000064C074D06E0E06829
:1002A00040F0010394E8070098471034AC42F6D3BD
:1002B000FFF770FF7C2600089C260008FEE77047C9
:1002C00070B586B000250C460646049572B61148F6
:1002D0001149086100F032FA0120CDE900503046A2
:1002E00000F0EAF8CDE90204014622460BA001F035
:1002F000E3FF04A9684600F04DF910B10FA001F02A
:10030000DBFF15A001F0D8FF00F0B8F962B60120BC
:1003100006B070BDF980010000200240CAB6B1F0FD
:10032000B5C4B3F5CABCD2B3CAFD3A25642020B91E
:10033000B2C9BEB3FD2564D2B30D0A0048414C5F7B
:10034000464C41534845785F4572617365202045AE
:1003500052524F520D0A0000457261736520737549
:100360006365737366756C6C79210D0A000000007B
:1003700072B6FEE7124A117F1248012901D0032903
:100380000BD1036843F400630360036823F4006344
:100390000360036843F400730360022901D003295A
:1003A0000BD1016841F480510160016821F4805152
:1003B0000160016841F4806101600020107770479E
:1003C0000C00002000200240C107054803D041690D
:1003D00041F004014161416941F48031416170475C
:1003E0000020024008494A69C0B222F47E7242EA03
:1003F000C0004861486940F002004861486940F423
:10040000803048617047000000200240054910B567
:100410004C6944F001044C610260BFF36F8F43608C
:1004200010BD000000200240094A10B55469402365
:1004300044F480245461EFF3108272B610C910C0E6
:100440005B1E13F0FF03F9D182F3108810BD00008A
:100450000020024070B5054600F064FA0646134CD1
:1004600008E0681C06D000F05DFA801BA84201D3AA
:10047000032070BD2069C003F3D420690C490840F3
:100480000CD00C494A6802434A60810F01D0A1692F
:10049000A161810000D02061012070BD2069C007EA
:1004A00001D001202061002070BD0000002002402A
:1004B000FAC302000C000020124910B509684FF47D
:1004C0008024CB431A04120C0BD00A045FEA921268
:1004D00002F10062824206D9A0F10060C40A0AA0BB
:1004E0000BE02246F4E71A04120C01D009048C092F
:1004F000001BA0F10060C40A06A001F0DDFE20464A
:1005000010BD0000E075FF1F42616E6B5F310D0A88
:100510000000000042616E6B5F320D0A00000000B7
:1005200010B590F825100024022903D00421C163DE
:1005300001241AE001680A6822F00E020A600168CC
:100540000A6822F001020A6090F84410036C01F07E
:100550001C02012101FA02F25A6080F825100021E4
:1005600080F82410816B01B18847204610BD00003F
:1005700070B5044600F0D6F90546601C02D0044868
:100580000078044400F0CEF9401BA042FAD370BDBD
:10059000000000202DE9F05F0546344889460178C7
:1005A00001290CD00127804607704CF2503B584679
:1005B000FFF750FF06004FF0000A03D052E0022080
:1005C00000F058B851464046C8F804A0284C2268AC
:1005D00092050ED5216821F400712160216849053A
:1005E00005D5216821F480612160032109E00777A6
:1005F00008E02268520504D5216821F48061216059
:10060000022101772868012807D04FF0FF31C9F88F
:10061000001040F2FA3BAF681DE06868FFF7D4FEB7
:100620005846FFF717FF0646606920F00400606136
:1006300016E038466968FFF7D5FE4CF25030FFF7F8
:1006400009FF0600606920EA0B00606102D0C9F86A
:10065000007005E07F1CD5E902010844B842E8D8E3
:10066000FFF788FE88F800A03046A9E70C000020BC
:100670000020024030BCBDE8C09F00000348416933
:1006800041F000414161002070470000002002401D
:100690002DE9FF5F254C0646904620789A460128B2
:1006A0000BD0012020704CF2503B5846FFF7D2FE91
:1006B00007004FF0000904D02AE0022004B000F047
:1006C00039B84846C4F80490194D2968490504D53D
:1006D000286820F4806028600220207726B1012E4F
:1006E00009D0022E07D00CE0424653460198FFF78E
:1006F0008DFE012612E041460198FFF795FE022E7D
:100700000AD05846FFF7A6FE4FEA0007FFF732FE71
:1007100084F800903846D1E74FF480265846FFF71A
:1007200099FE07466869B0436861EFE70C00002056
:100730000020024030BCBDE8C09F000006490020F8
:100740004A69002A07DA054A8A60054A8A604969C7
:10075000002900DA0120704700200240230167458C
:10076000AB89EFCD2DE9FC4FDFF894A100230125E3
:100770000AF1040B03244FF00F0C0BF1040EB8E048
:1007800005FA03F632406FD04F68012F05D0022FD3
:1007900003D0112F01D0122F17D1D0F808905F008D
:1007A00004FA07F829EA08090097D1F80C8008FA3A
:1007B00007F848EA0908C0F808804768B7430E7987
:1007C000C6F300169E403E434660C6684FEA4308A3
:1007D00004FA08F7BE4301978F6807FA08F7374312
:1007E000C7604E68022E01D0122E13D1DE0800EB36
:1007F00086060096366A5F07FF0E0CFA07F926EAAE
:100800000906D1F8109009FA07F949EA0609009E8D
:10081000C6F820900668019FBE430F7907F00307D2
:1008200007FA08F7374307604E68F60060D5354E83
:10083000376E47F001073766366E23F0030706F080
:1008400001060096304E3E44B146B6689F074FEA17
:1008500017780CFA08F7BE43B0F1904F05D02B4F34
:10086000B84204D1012712E042E000270FE0284FF0
:10087000B84201D102270AE0264FB84201D103272E
:1008800005E0254FB84201D1042700E0072707FA09
:1008900008F73743C9F80870DAF800605746D1F80E
:1008A000048096435FEAC83800D516433E60DBF803
:1008B00000605F46D1F8048096435FEA883800D52F
:1008C00016433E60DEF800607746D1F80480964318
:1008D0005FEAC82800D516433E60094F0C373E68D2
:1008E000D1F8048096435FEA882800D516433E601D
:1008F0005B1C0A6832FA03F67FF442AF00F00EB8D0
:1009000000040140001002400000014000040048C3
:1009100000080048000C0048001000481CBCBDE85E
:10092000E08F000001488068704700000000002050
:1009300002488168027811448160704700000020FD
:1009400010B50024032000F071F8002000F008F832
:1009500008B1012401E000F025F8204610BD000098
:1009600070B50E4E05460024307898B14FF47A7178
:10097000B1FBF0F00A490968B1FBF0F000F0BEFDF0
:1009800040B9102D06D200222946501E00F02EF844
:10099000756000E00124204670BD000000000020CA
:1009A0002C000020094808B5016E41F001010166E4
:1009B000016E01F001010091816D41F0805181656E
:1009C000806D00F08050009008BD000000100240D3
:1009D000002809DB00F01F0201219140400980003E
:1009E00000F1E020C0F8001170470000F0B40E4B99
:1009F0001B680C46C3F30223C3F10705042D00D97D
:100A00000425191D072901D2002300E0DB1E012661
:100A100006FA05F1491E214099409E40761E164077
:100A20003143F0BC01F058BC0CED00E0064900F089
:100A3000070208684FF6FF03184040EA0220034A05
:100A400010430860704700000CED00E00000FA055C
:100A50001649B0F5007F0868C0F3412009D002288C
:100A600005D0086820F4C06040F480600860002071
:100A700070470128FBD0086820F4C06040F4007083
:100A800008600B483222006850430A4AB0FBF2F07B
:100A9000401C00E0401E4A69520501D50028F9D1EA
:100AA00048694005E3D5032070470000007000400E
:100AB0002C00002040420F000248006800F4C06093
:100AC00070470000007000402DE9F84F04460027F1
:100AD0000088A84D3E46000515D5606C60B1B0F5A4
:100AE000000F04D0B0F5400F2BD001270AE0E868D2
:100AF00040F48030E86024E00021201D00F09AFFDF
:100B000007001ED03E46206880033AD5A86D4FF0FE
:100B10000008C00009D4A86D40F08050A865A86DF9
:100B20004FF0010800F080500090DFF84CA2DAF896
:100B3000001041F48071CAF80010FFF7F3FE8146FF
:100B400010E0D5F88800616C20F440000843C5F837
:100B50008800D8E7FFF7E6FEA0EB0900022801D9DC
:100B6000032705E0DAF80000C005F3D5002F7DD09B
:100B70004FEA0706B8F1000F03D0A86D20F08050AF
:100B8000A8652078C00707D0D5F88800216A20F032
:100B900003000843C5F888002078800707D5D5F8FA
:100BA0008800616A20F00C000843C5F888002078AE
:100BB000400707D5D5F88800A16A20F03000084327
:100BC000C5F888002078800607D5D5F88800E16A46
:100BD00020F440600843C5F888002088800507D5C8
:100BE000D5F88800E16B20F440200843C5F8880060
:100BF0002088400507D5D5F88800216C20F44010E6
:100C00000843C5F888002078400607D5D5F8880045
:100C1000216B20F440500843C5F888002078000676
:100C200007D5D5F88800616B20F440400843C5F82B
:100C300088002088C00507D5D5F88800A16B20F46E
:100C400040300843C5F8880020684FF00067000373
:100C50004FF0806850D5D5F88800A16C20F0406036
:100C60000843C5F88800A06CB84200E005E03BD11D
:100C7000E86840F48010E8603EE0D5F8900010F499
:100C8000407014D0A16D814211D0D5F89000D5F8F4
:100C9000901020F4407041F48031C5F89010D5F8E0
:100CA000901021F48031C5F89010C5F89000C0076D
:100CB00011D0FFF737FE074641F2883907E000BF41
:100CC000FFF730FEC11B494501D9032652E7D5F88D
:100CD00090008007F4D5D5F89000A16D20F4407005
:100CE0000843C5F8900045E7404505D10121201D86
:100CF00000F0A0FE00B106462068400317D5D5F8E5
:100D00008800E16C20F040600843C5F88800E06C82
:100D1000B84204D1E86840F48010E86007E040453C
:100D200005D10121201D00F085FE00B10646208876
:100D3000400411D5D5F88800216D20F040500843BB
:100D4000C5F88800206DB0F1805F05D10221201D1B
:100D500000F070FE00B106462088000406D555F864
:100D6000880F616D20F0804008432860304600F015
:100D700005B80000001002400070004018BCBDE83B
:100D8000E08F00002DE9F0470F46050058D0404E97
:100D9000306800F00700B84209D2306820F0070040
:100DA00038433060306800F00700B84248D12878F6
:100DB000384CC0072CD06868032811D0022812D004
:100DC000216898B1490500293ADAA16821F00301A8
:100DD0000143A160FFF7A6FD804641F2883910E08B
:100DE00021688901EFE721688903ECE78907EAE7D1
:100DF000FFF798FDA0EB0801494502D90320BDE8A3
:100E0000F087A068696800F00C00B0EB810FEFD1AB
:100E10002878800705D5A068A96820F0F00008436D
:100E2000A060306800F00700B8420BD9306820F0AD
:100E3000070038433060306800F00700B84201D046
:100E40000120DCE72878400705D5A068E96820F490
:100E5000E0600843A0602878000706D5A0682969EB
:100E600020F4605040EAC100A06000F03FF8A168A3
:100E7000094AC1F30311515C01F01F01C840074941
:100E8000086007480068BDE8F047FFF769BD00004B
:100E90000020024000100240342600082C000020F0
:100EA000040000200548064900688968054AC1F326
:100EB0000221515C01F01F01C84070472C00002046
:100EC0000010024074260008054806490068896839
:100ED000054AC1F3C221515C01F01F01C8407047AF
:100EE0002C000020001002407426000870B525492F
:100EF000002318468A68CC6812F00C0204F003063E
:100F0000214C4FEA640509D00C2A05D0042A32D0BE
:100F1000082A00D1284670BD012E10D10B681B078E
:100F200004D4D1F89430C3F3032302E00B68C3F375
:100F30000313164E56F82330DAB10C2AEBD1C868E9
:100F400000F00300022818D0032818D01846CA68F9
:100F5000CB68C2F30212C3F306234343521CB3FB14
:100F6000F2F2C868C0F34160401C4000B2FBF0F0F0
:100F700070BD184670BD204670BD2046E7E7284684
:100F8000E5E70000001002400024F40044260008B9
:100F90002DE9F84304006FD0FE4DA86800F00C0660
:100FA000E86800F003072078C00664D576B10C2EFF
:100FB00001D1012F0AD0A069002828687AD040F01A
:100FC00001002860FFF7AEFC80465DE028688007DE
:100FD00002D5A0690028DED0216A2868000703D561
:100FE000286800F0F00004E0D5F89400F02202EA4E
:100FF0001010814216D9084600F0B2FD00283BD1FE
:10100000286840F0080028602868216A20F0F00075
:10101000084328606868E16920F47F4040EA0120C5
:10102000686016E0286840F0080028602868216A97
:1010300020F0F000084328606868E16920F47F40F0
:1010400040EA0120686026B9206A00F089FD002886
:10105000D5D1FFF74BFFA968CF4AC1F30311515C0B
:1010600001F01F01C840CD490860CD480068FFF776
:1010700077FC00287ED12EE0CAE000BFFFF752FCCB
:10108000A0EB0800022876D828688007F6D52868E3
:1010900040F0080028602868216A20F0F00008432A
:1010A00028606868E16920F47F4040EA01206860B8
:1010B00011E0FFE720F001002860FFF733FC8046D5
:1010C00006E000BFFFF72EFCA0EB08000228DAD8EC
:1010D00028688007F6D42078C00740D0082E18D0A2
:1010E0000C2E01D1032F14D06068B0F5803F17D0CB
:1010F000B0F5A02F286817D020F480302860286829
:1011000020F4802028606068E0B1FFF70BFC804687
:1011100014E02868800322D56068002878D01EE09B
:10112000286840F48030EDE740F480202860F7E73D
:10113000FFF7F8FBA0EB08006428A4D82868800318
:10114000F6D50CE0FFF7EEFB804605E0FFF7EAFB83
:10115000A0EB0800642896D828688003F6D420788D
:1011600080073BD5042E11D00C2E01D1022F0DD0BB
:10117000E06801E0B6E1FFE0002828681ED040F4F6
:1011800080702860FFF7CEFB07460CE0286840051A
:101190000CD5E0680028C1D008E000BFFFF7C2FB13
:1011A000C01B022893D828684005F7D56868217CC1
:1011B00020F0FE4040EA016068600FE020F480709B
:1011C0002860FFF7AFFB074605E000BFFFF7AAFB6B
:1011D000C01B0228B1D828684005F7D42078000742
:1011E00029D560690028D5F8940012D040F001009C
:1011F000C5F89400FFF796FB074604E0FFF792FB63
:10120000C01B022899D8D5F894008007F6D512E0C3
:101210002BE120F00100C5F89400FFF783FB07469F
:1012200005E000BFFFF77EFBC01B022885D8D5F87C
:1012300094008007F6D42078400766D5A86D002773
:10124000C00008D4A86D40F08050A865A86D0127A3
:1012500000F08050009053480168C90512D401681D
:10126000814641F480710160FFF75CFB804605E038
:10127000FFF758FBA0EB080002287DD8D9F8000042
:10128000C005F5D5A068012816D00528D5F890002E
:1012900017D020F00100C5F89000D5F8900020F09C
:1012A000040000BFC5F89000A06841F28839C0B1C1
:1012B000FFF738FB80460FE0D5F8900040F00100C2
:1012C000F0E740F00400C5F89000F5E7FFF72AFBCF
:1012D000A0EB080149454FD8D5F890008007F5D517
:1012E0000EE0FFF71FFB804606E000BFFFF71AFB8A
:1012F000A0EB080149453FD8D5F890008007F5D408
:101300001FB1A86D20F08050A8652078800628D5F0
:10131000606A0028D5F8980012D040F00100C5F8A6
:101320009800FFF7FFFA074605E000BFFFF7FAFA5B
:10133000C01B022820D8D5F898008007F6D510E009
:1013400020F00100C5F89800FFF7ECFA074604E02A
:10135000FFF7E8FAC01B02280ED8D5F898008007DE
:10136000F6D4A06AA8B1022824D00C2E7DD028681B
:1013700020F08070286000E0B3E02868000103D40A
:10138000E86820F00300E860E86807490840E86082
:101390000CE09FE000100240342600082C000020E2
:1013A0000400002000700040FFFFEEFEFFF7BAFAD5
:1013B000044699E0E868E26A00F00301914226D110
:1013C000216B00F070020901103991421FD1626B4C
:1013D00000F4FE41B1EB022F19D194F8382000F04F
:1013E0007841B1EBC26F12D1A18F00F4C00249085D
:1013F0004905A1F50011914209D194F8401000F07F
:10140000C06049084906A1F1007181424BD00C2E01
:101410006FD0286840016CD4286820F08070286064
:10142000FFF780FA064604E0FFF77CFA801B0228EB
:1014300057D828688001F7D4F4E90B016FF00F0248
:1014400002EB01110843218A5204490802EB415181
:10145000A26841EA02210843217D4FF07E424908FB
:1014600002EB41610843217B00E042E040EAC160B9
:10147000E968214A11400843E860286840F080701C
:101480002860E86840F08070E860FFF74BFA044697
:1014900005E000BFFFF746FA001B022821D82868A4
:1014A0008001F7D523E02868800120D4286840F027
:1014B00080702860E86840F08070E860FFF732FADA
:1014C000044604E0FFF72EFA001B022809D828681A
:1014D0008001F7D50BE000BFFFF724FA001B0228BC
:1014E00002D90320BDE8F88328688001F4D40020E5
:1014F000F8E70120F6E700008C809D0110B5401E42
:10150000B0F1807F01D3012010BD4FF0E024606175
:101510000F21601700F0E0FE0020A061072020618D
:10152000002010BD704770472DE9F0410268044665
:10153000D0691168936840F60F0528424FF0000506
:1015400005D186067BD58E0679D5216E88E04D4F74
:1015500003F001060F40374371D0C70707D0CF050E
:1015600005D501271762E26F42F00102E2678207A8
:1015700008D5DA0706D0276802223A62E26F42F005
:101580000402E267420708D5DA0706D0236804227E
:101590001A62E26F42F00202E26702070AD501F026
:1015A0002002324306D0236808221A62E26F42F01A
:1015B0000802E267020509D54A0107D523684FF4FE
:1015C00000621A62E26F42F02002E267E26F002AD4
:1015D0002ED0800605D5880603D5216E09B1204698
:1015E0008847E06F21688968490602D410F0280F07
:1015F00020D0204600F0DEFC20688168490614D522
:10160000816821F040018160E06E70B11E49816304
:10161000E06EFEF785FF00280AD0E06E816B00E0E7
:101620002046BDE8F041084709E02046FFF77BFF70
:10163000BDE8F0812046FFF776FFE567F8E7C602D0
:1016400009D55B0207D54FF4801010622046BDE833
:10165000F041FFF767BF030605D50B0603D5616EA2
:101660000029DDD1E4E74006E2D54806E0D511685F
:10167000204621F04001116020216167656600F07D
:10168000CEF8D5E720010004A11F000810B5040022
:1016900002D0606F10B107E0012010BD002084F877
:1016A0007000204600F026F824206067206801685A
:1016B00021F001010160204600F08CFC0128ECD0F3
:1016C000606A10B1204600F0DBFB2068416821F41D
:1016D000904141602068816821F02A018160206882
:1016E000016841F0010101602046BDE8104000F0B2
:1016F0002BBC000010B586B0044614216846FEF7E6
:10170000A0FD17492068884228D11648016E41F48F
:1017100080410166016E01F480410591C16C41F088
:101720000101C164C06C694600F0010005904FF4EE
:10173000C0600090022001900020029003200390DE
:10174000072004904FF09040FFF70CF8002211465C
:101750002520FFF74BF92520FFF73AF906B010BD19
:1017600000380140001002402DE9F8430446406F64
:101770001F4616460D4620284FD1CDB1C6B194F86C
:101780007000012849D0012084F870004FF0000853
:10179000C4F87C8021206067FFF7C4F8A4F850608B
:1017A0008146A4F85260A068B0F5805F03D004E0E1
:1017B0000120BDE8F883206928B12E465FF00005BE
:1017C00084F8708010E00026FAE78021204600F0BF
:1017D00003FDB8B9C6B116F8010B21680885B4F845
:1017E0005200401EA4F85200B4F852004B464FF08D
:1017F000000200970028E8D14FF04001204600F099
:10180000EBFC30B10320D4E735F8020BC0F308003D
:10181000E3E7202060670020CBE70220C9E770479C
:10182000FEE7000010B50168084A1140B1F1005F01
:1018300004D0BDE8104006A000F03EBD446800683A
:10184000FEF7AEFCA446BDE8104060470000FE2F46
:101850005468657265206973204E6F6E6520415033
:101860005020746F206A756D702C4552524F522172
:1018700021210D0A000000000D4808B5C16C41F09F
:101880000401C164C16C01F004010091C16C41F01C
:101890008001C164C16C01F080010091C16C41F014
:1018A0000101C164C06C00F00100009008BD00009F
:1018B000001002400D4810B50B4901604FF4E131B2
:1018C0004160002181600C22C160C0E90412816185
:1018D000C16101624162FFF7D9FE002803D0BDE873
:1018E0001040FEF745BD10BD003801403400002017
:1018F000FEE700002DE9F0438146ADF2044D1546A8
:101900000E461AA000F0D8FCE80A80460146304690
:10191000FEF7D6FC1DA000F0CFFC26A000F0CCFC0A
:1019200000244FF480670CE009EB84203A466946B6
:1019300000F054F906EB84203A46694600F0A5FC15
:10194000641CB4EB952FEFD320A000F0B5FC26A0CB
:1019500000F0B2FC41464846FEF7B2FC2AA000F077
:10196000ABFC0DF2044DBDE8F08300003E20537443
:101970006172742065726173652064657320666CA2
:101980006173682E2E2E2E2E2E0D0A003E204572DB
:101990006173652064657320666C6173682073757C
:1019A0006365737366756C6C792E2E2E2E2E2E0D3C
:1019B0000A0000003E20537461727420636F7079D6
:1019C0002E2E2E2E2E2E0D0A000000003E20436FDC
:1019D00070792073756365737366756C6C792E2EE0
:1019E0002E2E2E2E0D0A00003E205374617274209C
:1019F00065726173652073726320666C6173682E13
:101A00002E2E2E2E2E0D0A003E204572617365206B
:101A100073726320666C617368207375636573739A
:101A200066756C6C792E2E2E2E2E2E0D0A0000005F
:101A3000FEE770472DE9F041444C05468846E068D2
:101A40000026810728680DD0E16801F0030181427A
:101A500016D1A8B1E0686968C0F30210401C884242
:101A60000ED120E0012804D0022805D0032807D198
:101A700008E02168890701E021684905002907DBA2
:101A800001265FE02168890302D421684903F5E754
:101A9000E1686A686FF00F0321F0730103EB021233
:101AA00011430143E160206820F080602060FEF770
:101AB00039FF074605E000BFFEF734FFC01B0228D0
:101AC00037D820680001F7D4B8F1000F18D0B8F16A
:101AD000010F1DD0287D4FF07E41400801EB406092
:101AE000A96840EA01202169194A11400843206190
:101AF000206840F080602060FEF714FF07461AE07F
:101B0000A868297B000240EAC1602169114AECE71C
:101B1000288A1149400801EB4050A96840EA012099
:101B200021690E4AE1E700BFFEF7FCFEC01B022858
:101B300001D9032606E020680001F5D52069A969CE
:101B4000084320613046BDE8F081000000100240EB
:101B5000FF80FFF9FF80FF070000E0FFFF809FFF8D
:101B6000F8B51C4D06460024A86DC00002D5FEF74E
:101B7000A3FF0DE0A86D40F08050A865A86D00F0AF
:101B800080500090FEF798FFA96D21F08051A96563
:101B9000B0F5007F04D0802E07D94FF003040AE08F
:101BA000802E08D9A02E01D804E001D1022402E041
:101BB000702E00D101240848016821F0070121435B
:101BC0000160006800F00700A04201D00120F8BDCC
:101BD0000020F8BD001002400020024010B5002394
:101BE00002E0C45CCC545B1C9342FAD310BD0000ED
:101BF00008B500208DF80000012269460248FFF771
:101C0000EDFF9DF8000008BDF8BF03087047000015
:101C100010B51DA000F050FB1CA000F04DFB25A04E
:101C200000F04AFB2DA000F047FB22A000F044FB8F
:101C300016A000F041FB33A000F03EFBFFF7D8FFF9
:101C4000394CAA280BD0FF2807D0FFF7D1FF014657
:101C5000BDE8104035A000F02FBB3AA009E03FA03E
:101C600000F02AFB4FF4B43221464248FFF742FE0F
:101C700041A000F021FB48A000F01EFB2046BDE87B
:101C80001040FFF7CFBD00000D0A00002A2A2A2AC3
:101C90002A2A2A2A2A2A2A2A2A2A2A2A2A2A2A2AA4
:101CA0002A2A2A2A2A2A2A2A2A2A2A2A2A2A2A0DB1
:101CB0000A0000002A202020202020202020202090
:101CC0002020202020202020202020202020202014
:101CD0002020202020202A0D0A0000002A20202079
:101CE0002020202020202020426F6F744C6F6164E0
:101CF00065722020202020202020202020202A0D56
:101D00000A0000003E2043686F6F736520612073F6
:101D1000746172747570206D6574686F642E2E2EF8
:101D20002E2E2E0D0A00000000F000083E20457205
:101D3000726F723A25582121212E2E2E2E2E2E0D15
:101D40000A0000003E204E6F726D616C207374615A
:101D500072742E2E2E2E2E2E0D0A00003E2053744D
:101D6000617274207570646174652E2E2E2E2E2E75
:101D70000D0A0000005802083E2055706461746529
:101D80002073756365737366756C6C792E2E2E2EB9
:101D90002E2E0D0A000000003E2053746172742044
:101DA00075702E2E2E2E2E2E0D0A0D0A000000000C
:101DB000FEF7BEBD30B5ADB044216846FEF741FA2E
:101DC000142128A8FEF73DFA5C2111A8FEF739FA84
:101DD00001252804CDE90050022003241221CDE979
:101DE0000C51CDE90A040721CDE90E101090684688
:101DF000FFF7CEF808B172B6FEE70F20CDE9280450
:101E000000242A942B94042128A82C94FEF7BAFFCE
:101E100008B172B6FEE711A811951994FEF754FEA9
:101E200008B172B6FEE74FF40070FEF711FE00280D
:101E300001D072B6FEE72DB030BD00000D4801683C
:101E400041F4700101600C48016841F0010101603A
:101E5000002181600268094B1A4002608214C2604E
:101E6000026822F48022026081610249C003803945
:101E70000860704788ED00E000100240FFFFF6EABE
:101E800090F82410C90706D001684A68836A22F4D2
:101E900000321A434A6090F82410890706D5016879
:101EA0004A68C36A22F480321A434A6090F82410C8
:101EB000490706D501684A68036B22F480221A4359
:101EC0004A6090F82410090706D501684A68436BF8
:101ED00022F400421A434A6090F82410C90606D53D
:101EE00001688A68836B22F480521A438A6090F8F2
:101EF0002410890606D501688A68C36B22F4005253
:101F00001A438A6090F82410490611D501684A687E
:101F1000036C22F480121A434A60016CB1F5801FF1
:101F200006D101684A68436C22F4C0021A434A6031
:101F300090F82410090606D501684A68806C22F4DE
:101F4000002202434A607047F8B500260446C6677F
:101F5000FEF7E8FC0546206800686FF07E47000742
:101F600008D52B4600224FF400112046009700F0C0
:101F700033F960B92068006840070AD52B46002273
:101F80004FF480012046009700F026F908B10320A5
:101F9000F8BD20206067A06784F870600020F8BD5D
:101FA00010B5806A0021A0F85A10A0F85210FFF76F
:101FB000BAFA10BD01680A6822F490720A600168DA
:101FC0008A6822F001028A6020218167002101666F
:101FD000704700002DE9F0410446016880682269DD
:101FE000E3691043626900251A431043724F0A687F
:101FF000724B1A4002430A6020684168E26821F48B
:102000004051114341602168A069B94201D0226A60
:1020100010438A6822F4306202438A606849236868
:1020200068488B420DD1D0F8880010F0030006D02C
:10203000012847D0022843D0032830D144E00121B1
:102040002EE061498B420BD1D0F8880010F00C00D3
:1020500034D0042836D0082832D00C281FD133E0E1
:102060005A498B420BD1D0F8880010F0300025D0AF
:10207000102827D0202823D0302810D124E0BB42BC
:102080000DD1D0F8880010F4406017D0B0F5806F03
:1020900018D0B0F5006F13D0B0F5406F14D01021F8
:1020A0004B4A00264FF40040BB422FD171B10229A8
:1020B0000FD004290FD0082975D10FE00021EFE7D8
:1020C0000221EDE70421EBE70821E9E7FEF7EAFE4C
:1020D00003E0104602E0FEF709FFE0B3626802EB9E
:1020E000420181425FD8B0EB023F5CD8010E000292
:1020F00073084FEA3207C01959410023FEF766F80A
:10210000344AA0F5407191424FD94CE0E3694FF653
:10211000EF77834229D1092945D2DFE801F005088C
:102120000B440D4444441000FEF7BCFE06E0FEF7ED
:10213000CBFE03E0104602E0FEF7D8FE58B14100A6
:10214000606801EB5001B1FBF0F080B2A0F110012A
:10215000B94228D800E02AE04FF6F0710140C0F300
:10216000420001432068C16021E009291BD2DFE859
:1021700001F005080B1A0D1A1A1A1000FEF792FE4C
:1021800006E0FEF7A1FE03E0104602E0FEF7AEFE19
:1021900068B1616800EB5100B0FBF1F080B2A0F1D2
:1021A0001001B94201D9012501E02168C860266605
:1021B00028466666BDE8F08100800040F369FFEFC5
:1021C0000038014000100240004400400048004038
:1021D0000024F400FFFC0F002DE9F0479A46174653
:1021E0000E4604464FF000094FF02008089D39E0E4
:1021F000681C37D0FEF796FBA0EB0A00A84222D855
:102200000DB32068016849072CD5C069C04300059B
:1022100028D421684FF4006008622068016821F426
:10222000D07101602068816821F001018160C4F8EB
:102230007480C4F87880C4F87C8000BF84F8709003
:102240000320BDE8F0872068016821F4D0710160A7
:102250002068816821F001018160C4F87480C4F8AD
:102260007880EBE72068C06936EA000004D00020DF
:10227000B842BDD00020E4E70120F9E70148FFF7AC
:1022800053B9000034000020FEE72DE9F041154667
:102290000E4607460024FEF751FA07E030193919B7
:1022A000D0E900230020FEF7F3F90834AC42F5DB57
:1022B000BDE8F041FEF7E2B90FB4054B10B503A934
:1022C000044A029800F028F810BC5DF814FB0000E6
:1022D000E1250008300000200907090E002804DB72
:1022E00000F1E02080F80014704700F00F0000F1CA
:1022F000E02080F8141D704702E008C8121F08C1D2
:10230000002AFAD170477047002001E001C1121F76
:10231000002AFBD1704700002DE9FF4F8DB09B468E
:102320000F460446002606E025280BD05A460F9992
:102330009047641C761C20780028F5D111B03046F7
:1023400000F04AB90025A8460122984900E005435B
:1023500014F8013F203B02FA03F00842F7D120783D
:102360002E2817D114F8010F45F004052A280ED0A5
:102370006FF02F022078A0F1300109290AD808EB6C
:10238000880102EB410100EB0108641CF2E757F8F9
:10239000048B641C20786C280DD004DC4C2812D0EF
:1023A0006A2811D104E074280DD07A280CD10AE0F3
:1023B00045F4001507E0617845F48015814202D1AB
:1023C000641C05F58015641C2278692A45D008DC58
:1023D000002AB3D0582A69D0632A10D0642A08D1C1
:1023E0003BE0702A67D0732A13D0752A5CD0782A14
:1023F0005CD010465A460F999047761CD3E017F8E8
:10240000040B8DF8000000208DF80100E946012042
:1024100003E057F8049B4FF0FF3069074FF00005C9
:1024200001D40AE06D1C45450DDA8542FADB19F846
:1024300005100029F6D106E06D1C8542FCDB19F879
:1024400005100029F8D12E4404E019F8010B5A4672
:102450000F9990476D1EF8D2A5E00A200021CDE922
:102460000801C5F3025002280DD001CFC117031E89
:1024700071F100030DDA4FF0000CD0EB0C006CEBA7
:1024800001012D2308E0FF1D27F00707F7E80201EF
:10249000EDE72B0504D52B238DF8283001233BE0F5
:1024A000EB0739D02023F7E70A2000E010200021B5
:1024B000CDE9080107E01020002145F00405CDE931
:1024C00008014FF00808C5F3025002280FD001CFD1
:1024D00000214FF0000A2B071FD5702A0DD0DDE92F
:1024E00008C38CF0100C5CEA030C0CD015E0FF1D47
:1024F00027F00707F7E80201EBE740228DF82820D4
:102500004FF0010A0BE050EA010306D030238DF8AA
:1025100028308DF8292002239A46582A04D024A274
:102520000DF120090B9209E026A2F9E7DDE9082365
:10253000FDF74CFE0B9B9B5C09F8013D50EA010244
:10254000F4D1ADEB090020300890680701D44FF0BA
:1025500001080899884502DDA8EB010000E0002091
:102560008046002506E00AA85A46405D0F9990472C
:102570006D1C761C5545F6DB04E030205A460F9959
:102580009047761CB8F10001A8F10108F5DC05E0E0
:1025900019F8010B5A460F999047761C0899481E66
:1025A00008900029F4DC641CC5E60000092801003D
:1025B00030313233343536373839616263646566B9
:1025C000000000003031323334353637383941427B
:1025D000434445460000000030BCBDE8C08F000009
:1025E00013B54FF6FF73012269460248FFF7BCF8A6
:1025F00000981CBD34000020FEF7A2F9FFF7DAFBBB
:10260000FFF73AF9FFF756F941F28834FFF700FB7C
:1026100003A0FFF751FE2046FDF7AAFFF6E70000F2
:102620007379732069732072756E6E696E67210D00
:102630000A00000000000000000000000102030486
:1026400006070809A0860100400D0300801A060055
:1026500000350C0040420F0080841E0000093D0040
:1026600000127A000024F40000366E010048E801F0
:10267000006CDC0200000000010203049C2600083C
:102680000000002034000000F8220008D0260008D6
:102690003400002084080000082300080100000026
:1026A000100000000000000000000000000000001A
:1026B0000000000000000000010000000000000019
:1026C000000000000000000000093D0000000000C4
:040000050800018D61
:00000001FF
